:1000D0000C949C000C94A6000C94A6000C94A60012
:1000E0000C94A6000C94A6000C94A6000C94A600F8
:1000F0000C94A6000C94A6000C94A6000C94A600E8
:100100000C94A6000C94A6000C94A6000C94A600D7
:100110000C94A6000C94A6000C94A6000C94A600C7
:100120000C94A6000C94A6000C94A6000C94A600B7
:100130000C94A6000C94A60011241FBECFEFD8E0AB
:10014000DEBFCDBF0E94A8000C941A010C94680079
:10015000259A80E090E023E030E02D9A82309105EE
:1001600041F44FEF54E36CE0415050406040E1F700
:1001700012C08130910541F44FEF53ED60E34150DF
:1001800050406040E1F707C04FEF57EA61E6415049
:1001900050406040E1F700C000002D98823091058A
:1001A00041F44FEF54E36CE0415050406040E1F7C0
:1001B00012C08130910541F44FEF53ED60E341509F
:1001C00050406040E1F707C04FEF57EA61E6415009
:1001D00050406040E1F700C000000196B9010E9464
:1001E000F200BBCF97FB072E16F4009407D077FDE3
:1001F00009D00E94060107FC05D03EF49095819538
:100200009F4F0895709561957F4F0895AA1BBB1B62
:1002100051E107C0AA1FBB1FA617B70710F0A61B06
:10022000B70B881F991F5A95A9F780959095BC0127
:08023000CD010895F894FFCF01
:04000003000000D029
:00000001FF
