:020000040000FA
:200000000C9434000C943E000C943E000C943E000C943E000C943E000C943E000C943E00FA
:200020000C943E000C943E000C943E000C943E000C943E000C943E000C943E000C943E00D0
:200040000C943E000C943E000C943E000C943E000C943E000C943E000C943E000C943E00B0
:200060000C943E000C943E0011241FBECFEFD8E0DEBFCDBF0E9440000C9445000C940000AC
:0E0080000C94600080E090E00895F894FFCFAB
:2000C0000C9494000C949E000C949E000C949E000C949E000C949E000C949E000C949E003A
:2000E0000C949E000C949E000C949E000C949E000C949E000C949E000C949E000C949E0010
:200100000C949E000C949E000C949E000C949E000C949E000C949E000C949E000C949E00EF
:200120000C949E000C949E0011241FBECFEFD8E0DEBFCDBF0E94A0000C9412010C9460009D
:20014000259A80E090E023E030E02D9A8230910541F44FEF54E36CE0415050406040E1F75F
:2001600012C08130910541F44FEF53ED60E3415050406040E1F707C04FEF57EA61E64150B9
:2001800050406040E1F700C000002D988230910541F44FEF54E36CE0415050406040E1F7FB
:2001A00012C08130910541F44FEF53ED60E3415050406040E1F707C04FEF57EA61E6415079
:2001C00050406040E1F700C000000196B9010E94EA00BBCF97FB072E16F4009407D077FD40
:2001E00009D00E94FE0007FC05D03EF4909581959F4F0895709561957F4F0895AA1BBB1BB5
:2002000051E107C0AA1FBB1FA617B70710F0A61BB70B881F991F5A95A9F780959095BC015F
:08022000CD010895F894FFCF11
:04000005000000C037
:00000001FF
