:100000000C9434000C9446000C9446000C9446006A
:100010000C9446000C9446000C9446000C94460048
:100020000C9446000C9446000C9446000C94460038
:100030000C9446000C9446000C9446000C94460028
:100040000C9446000C9446000C9446000C94460018
:100050000C9446000C9446000C9446000C94460008
:100060000C9446000C94460011241FBECFEFD8E03C
:10007000DEBFCDBF11E0A0E0B1E001C01D92A6300F
:10008000B107E1F70E9456000C9413010C94000094
:1000900027E0AC01249FC001259F900D11240895F5
:1000A00067E070E00E94FF00CB010895109201010B
:1000B0001092000180E092E090930301809302018E
:1000C000409104015091050180910001909101013E
:1000D0002091020130910301840F951F820F931F1D
:1000E000909305018093040180910001909101019A
:1000F0008093000280910001909101019093010290
:100100008091040190910501E82FF92F099480E472
:1001100092E09093030180930201809100029091FC
:100120000102909301018093000180910001909160
:1001300001010196909301018093000180910001DB
:100140009091010180930002809100019091010142
:1001500090930102209100013091010147E0429FFC
:10016000C001439F900D11249093050180930401D9
:1001700020910401309105018091020190910301C9
:10018000820F931F909305018093040180910401D5
:1001900090910501E82FF92F0994FF91EF918E2F8F
:1001A0009F2F909305018093040180910401909109
:1001B00005012091020130910301821B930B909362
:1001C000050180930401809104019091050167E08D
:1001D00070E00E94FF007093010160930001809124
:1001E00000019091010180930002809100019091A3
:1001F000010190930102099480E090E00895AA1B08
:10020000BB1B51E107C0AA1FBB1FA617B70710F001
:10021000A61BB70B881F991F5A95A9F78095909533
:0A022000BC01CD010895F894FFCF52
:00000001FF
