:100400000C9434020C943E020C943E020C943E0276
:100410000C943E020C943E020C943E020C943E025C
:100420000C943E020C943E020C943E020C943E024C
:100430000C943E020C943E020C943E020C943E023C
:100440000C943E020C943E020C943E020C943E022C
:100450000C943E020C943E020C943E020C943E021C
:100460000C943E020C943E0211241FBECFEFD8E044
:10047000DEBFCDBF0E9440020C946E040C940002BB
:10048000259AE7E8F0E0099400000000000080E011
:10049000EDE8F0E0099400000000000090E0EDE8D5
:1004A000F0E0099400000000000023E0EDE8F0E037
:1004B000099400000000000030E0EDE8F0E009944D
:1004C0000000000000002D9AEDE8F0E00994000023
:1004D000000000008230EDE8F0E009940000000028
:1004E00000009105EDE8F0E0099400000000000034
:1004F00011F40C948700C9EBCF93C2E0CF930C9416
:10050000CD004FEFEDE8F0E009940000000000009E
:1005100054E3EDE8F0E009940000000000006CE016
:10052000EDE8F0E009940000000000004150EDE823
:10053000F0E009940000000000005040EDE8F0E019
:1005400009940000000000006040EDE8F0E009942C
:1005500000000000000051F7E3EDF0E00994000016
:100560000000000084C0E3EDF0E00994000000000A
:1005700000008130EDE8F0E0099400000000000088
:100580009105EDE8F0E00994000000000000F1F5AD
:10059000E3EDF0E009940000000000004FEFEDE80B
:1005A000F0E0099400000000000053EDEDE8F0E0F9
:1005B000099400000000000060E3EDE8F0E0099419
:1005C0000000000000004150EDE8F0E00994000058
:1005D000000000005040EDE8F0E009940000000049
:1005E00000006040EDE8F0E0099400000000000029
:1005F00051F7E3EDF0E0099400000000000037C07F
:10060000E3EDF0E009940000000000004FEFEDE89A
:10061000F0E0099400000000000057EAEDE8F0E087
:10062000099400000000000061E6EDE8F0E00994A4
:100630000000000000004150EDE8F0E009940000E7
:10064000000000005040EDE8F0E0099400000000D8
:1006500000006040EDE8F0E00994000000000000B8
:1006600051F7E3EDF0E0099400000000000000C045
:10067000EDE8F0E009940000000000000000000038
:100680000000EDE8F0E009940000000000002D9863
:10069000EDE8F0E009940000000000008230EDE891
:1006A000F0E009940000000000009105EDE8F0E0A2
:1006B0000994000000000000F1F5E3EDF0E009947A
:1006C0000000000000004FEFEDE8F0E009940000AA
:1006D0000000000054E3EDE8F0E0099400000000A1
:1006E00000006CE0EDE8F0E009940000000000007C
:1006F0004150EDE8F0E00994000000000000504097
:10070000EDE8F0E009940000000000006040EDE832
:10071000F0E0099400000000000051F7E3EDF0E084
:10072000099400000000000084C0E3EDF0E00994AB
:100730000000000000008130EDE8F0E009940000C6
:10074000000000009105EDE8F0E0099400000000D1
:100750000000F1F5E3EDF0E0099400000000000076
:100760004FEFEDE8F0E0099400000000000053EDC9
:10077000EDE8F0E0099400000000000060E3EDE81F
:10078000F0E009940000000000004150EDE8F0E0C6
:1007900009940000000000005040EDE8F0E00994EA
:1007A0000000000000006040EDE8F0E00994000067
:1007B0000000000051F7E3EDF0E0099400000000B4
:1007C000000037C0E3EDF0E00994000000000000F5
:1007D0004FEFEDE8F0E0099400000000000057EA58
:1007E000EDE8F0E0099400000000000061E6EDE8AB
:1007F000F0E009940000000000004150EDE8F0E056
:1008000009940000000000005040EDE8F0E0099479
:100810000000000000006040EDE8F0E009940000F6
:100820000000000051F7E3EDF0E009940000000043
:10083000000000C0E3EDF0E00994000000000000BB
:10084000000000000000EDE8F0E009940000000066
:1008500000000196EDE8F0E00994000000000000BF
:10086000B901EDE8F0E009940000000000000E94EA
:100870004604EDE8F0E0099400000000000023CEFB
:10088000E3EDF0E0099400000000000097FB072E64
:1008900016F4009407D077FD09D00E945A0407FC93
:1008A00005D03EF4909581959F4F08957095619580
:1008B0007F4F0895AA1BBB1B51E107C0AA1FBB1F96
:1008C000A617B70710F0A61BB70B881F991F5A95DC
:1008D000A9F780959095BC01CD010895F894FFCFBC
:0400000300000400F5
:00000001FF
