:100400000C9434020C943E020C943E020C943E0276
:100410000C943E020C943E020C943E020C943E025C
:100420000C943E020C943E020C943E020C943E024C
:100430000C943E020C943E020C943E020C943E023C
:100440000C943E020C943E020C943E020C943E022C
:100450000C943E020C943E020C943E020C943E021C
:100460000C943E020C943E0211241FBECFEFD8E044
:10047000DEBFCDBF0E9440020C94D8030C94000252
:10048000259AE7E8F0E00994000080E0EDE8F0E06C
:100490000994000090E0EDE8F0E00994000023E00A
:1004A000EDE8F0E00994000030E0EDE8F0E00994B8
:1004B00000002D9AEDE8F0E0099400008230EDE8AC
:1004C000F0E0099400009105EDE8F0E009940000E7
:1004D00011F40C948700C2E0CF930C940B014FEF02
:1004E000EDE8F0E00994000054E3EDE8F0E0099451
:1004F00000006CE0EDE8F0E0099400004150EDE808
:10050000F0E0099400005040EDE8F0E009940000AC
:100510006040EDE8F0E00994000081F7E3EDF0E0E1
:10052000099400005EC0E3EDF0E009940000813022
:10053000EDE8F0E0099400009105EDE8F0E00994A1
:10054000000061F5E3EDF0E0099400004FEFEDE805
:10055000F0E00994000053EDEDE8F0E009940000AC
:1005600060E3EDE8F0E0099400004150EDE8F0E0D0
:10057000099400005040EDE8F0E00994000060406C
:10058000EDE8F0E00994000081F7E3EDF0E0099474
:10059000000027C0E3EDF0E0099400004FEFEDE824
:1005A000F0E00994000057EAEDE8F0E0099400005B
:1005B00061E6EDE8F0E0099400004150EDE8F0E07C
:1005C000099400005040EDE8F0E00994000060401C
:1005D000EDE8F0E00994000081F7E3EDF0E0099424
:1005E000000000C0EDE8F0E0099400000000EDE834
:1005F000F0E0099400002D98EDE8F0E00994000087
:100600008230EDE8F0E0099400009105EDE8F0E0BB
:100610000994000061F5E3EDF0E0099400004FEF6C
:10062000EDE8F0E00994000054E3EDE8F0E009940F
:1006300000006CE0EDE8F0E0099400004150EDE8C6
:10064000F0E0099400005040EDE8F0E0099400006B
:100650006040EDE8F0E00994000081F7E3EDF0E0A0
:10066000099400005EC0E3EDF0E0099400008130E1
:10067000EDE8F0E0099400009105EDE8F0E0099460
:10068000000061F5E3EDF0E0099400004FEFEDE8C4
:10069000F0E00994000053EDEDE8F0E0099400006B
:1006A00060E3EDE8F0E0099400004150EDE8F0E08F
:1006B000099400005040EDE8F0E00994000060402B
:1006C000EDE8F0E00994000081F7E3EDF0E0099433
:1006D000000027C0E3EDF0E0099400004FEFEDE8E3
:1006E000F0E00994000057EAEDE8F0E0099400001A
:1006F00061E6EDE8F0E0099400004150EDE8F0E03B
:10070000099400005040EDE8F0E0099400006040DA
:10071000EDE8F0E00994000081F7E3EDF0E00994E2
:10072000000000C0E3EDF0E0099400000000EDE8F7
:10073000F0E0099400000196EDE8F0E00994000073
:10074000B901EDE8F0E0099400000E94B003EDE883
:10075000F0E009940000ADCEE3EDF0E00994000074
:1007600097FB072E16F4009407D077FD09D00E945E
:10077000C40307FC05D03EF4909581959F4F0895E2
:10078000709561957F4F0895AA1BBB1B51E107C06F
:10079000AA1FBB1FA617B70710F0A61BB70B881F11
:1007A000991F5A95A9F780959095BC01CD010895A0
:0407B000F894FFCFEB
:0400000300000400F5
:100000000C9434000C9446000C9446000C9446006A
:100010000C9446000C9446000C9446000C94460048
:100020000C9446000C9446000C9446000C94460038
:100030000C9446000C9446000C9446000C94460028
:100040000C9446000C9446000C9446000C94460018
:100050000C9446000C9446000C9446000C94460008
:100060000C9446000C94460011241FBECFEFD8E03C
:10007000DEBFCDBF11E0A0E0B1E001C01D92A6300F
:10008000B107E1F70E9456000C9406010C940000A1
:1000900025E0AC01249FC001259F900D11240895F7
:1000A00065E070E00E94F200CB010895109201011A
:1000B0001092000180E092E090930301809302018E
:1000C000409104015091050180910001909101013E
:1000D0002091020130910301840F951F820F931F1D
:1000E000909305018093040180910001909101019A
:1000F0008093000280910001909101019093010290
:100100008091040190910501E82FF92F099480E472
:1001100092E09093030180930201809100029091FC
:100120000102909301018093000180910001909160
:1001300001010196909301018093000180910001DB
:100140009091010180930002809100019091010142
:1001500090930102209100013091010145E0429FFE
:10016000C001439F900D11249093050180930401D9
:1001700020910401309105018091020190910301C9
:10018000820F931F909305018093040180910401D5
:1001900090910501E82FF92F0994FF918E2F9F2F41
:1001A00090930501809304018091040190910501D1
:1001B0002091020130910301821B930B9093050162
:1001C00080930401809104019091050165E070E045
:1001D0000E94F2007093010160930001099480E095
:1001E00090E00895AA1BBB1B51E107C0AA1FBB1FCB
:1001F000A617B70710F0A61BB70B881F991F5A95B3
:10020000A9F780959095BC01CD010895F894FFCF92
:00000001FF


