:100400000C9434020C943E020C943E020C943E0276
:100410000C943E020C943E020C943E020C943E025C
:100420000C943E020C943E020C943E020C943E024C
:100430000C943E020C943E020C943E020C943E023C
:100440000C943E020C943E020C943E020C943E022C
:100450000C943E020C943E020C943E020C943E021C
:100460000C943E020C943E0211241FBECFEFD8E044
:10047000DEBFCDBF0E9440020C9440050C940002E8
:10048000259A0C94F6000000000000000000000017
:10049000000000000C94F6000000000000000000C6
:1004A00000000000B9010C94F600000000000000FC
:1004B0000000000000004FEF0C94F6000000000068
:1004C000000000000000000091050C94F600000000
:1004D0000000000000000000000011F40C94F60081
:1004E000CDEFCF93C4E0CF930C946A0161E60C94F6
:1004F000F6000000000000000000000000004FEFC8
:100500000C94F60000000000000000000000000055
:1005100054E30C94F600000000000000000000000E
:1005200000000E9418050C94F60000000000000076
:1005300000000000000057EA0C94F60000000000E4
:10054000000000000000000011F40C94F600CBE560
:10055000CF93C2E0CF930C946A014FEF0C94F60056
:1005600000000000000000000000000041500C945A
:10057000F60000000000000000000000000053ED45
:100580000C94F600000000000000000000000000D5
:100590006CE00C94F6000000000000000000000079
:1005A000000080E00C94F600000000000000000055
:1005B0000000000011F40C94F600CEE1CF93C4E0EB
:1005C000CF930C946A014FEF0C94F60000000000EA
:1005D000000000000000000054E30C94F60000004E
:1005E0000000000000000000000050400C94F600E5
:1005F00000000000000000000000000060E30C9418
:10060000F600000000000000000000000000415063
:100610000C94F60000000000000000000000000044
:1006200090E00C94F60000000000000000000000C4
:10063000000000000C94F600000000000000000024
:100640000000000041500C94F60000000000000083
:1006500000000000000061E60C94F60000000000BD
:10066000000000000000000060400C94F600000054
:100670000000000000000000000041500C94F60053
:1006800000000000000000000000000050400C943A
:10069000F60000000000000000000000000023E061
:1006A0000C94F600000000000000000000000000B4
:1006B00000000C94F60000000000000000000000A4
:1006C000000050400C94F600000000000000000004
:1006D0000000000060E30C94F60000000000000041
:1006E00000000000000053ED0C94F6000000000034
:1006F00000000000000000006CE00C94F600000018
:100700000000000000000000000060400C94F600B3
:1007100000000000000000000000000030E00C9429
:10072000F6000000000000000000000000000000D3
:100730000C94F60000000000000000000000000023
:1007400060400C94F6000000000000000000000073
:10075000000041500C94F600000000000000000072
:100760000000000050400C94F60000000000000063
:1007700000000000000041500C94F6000000000052
:10078000000000000000000011F40C94F600C6EB1D
:10079000CF93C2E0CF930C946A0150400C94F600C2
:1007A00000000000000000000000000000000C94A9
:1007B000F60000000000000000000000000011F43E
:1007C0000C94F600C2E2CF93C3E0CF930C946A017D
:1007D00050400C94F60000000000000000000000F3
:1007E000000060400C94F6000000000000000000D3
:1007F0000000000000000C94F60000000000000063
:100800000000000000000C9405040C94F6000000A9
:100810000000000000000000000060400C94F600A2
:10082000000000000000000000000000C7E0CF93BF
:10083000C3E0CF930C946A01000000002D9A0C9441
:10084000F600000000000000000000000000604012
:100850000C94F60000000000000000000000000002
:1008600011F40C94F600CBEBCF93C3E0CF930C9430
:100870006A012D980C94F6000000000000000000B2
:1008800000000000C3E0CF93C4E0CF930C946A0152
:100890000000000011F40C94F600CDE3CF93C3E008
:1008A000CF930C946A010000C3E0CF93C4E0CF93D0
:1008B0000C946A010000000082300C94F6000000E5
:1008C0000000000000000000000000000C94F60092
:1008D0000000000000000000000000000C94700404
:1008E0000C94F600000000000000000000008230C0
:1008F0000C94F60000000000000000000000000062
:100900004FEF0C94F6000000000000000000000013
:10091000000091050C94F6000000000000000000AB
:100920000000000081300C94F60000000000000080
:1009300000000000000091050C94F600000000008B
:10094000000000000000000000000C94F600000011
:100950000000000000000000000000000C94F60001
:1009600000000000000000000000000011F40C94E2
:10097000F600C9EACF93C3E0CF930C946A01CEE6A8
:10098000CF93C4E0CF930C946A010000000011F4EF
:100990000C94F600C0E8CF93C4E0CF930C946A01A6
:1009A00000004FEF0C94F600000000000000000073
:1009B0000000000011F40C94F600C2E9CF93C4E0EB
:1009C000CF930C946A01000000000C94F600000024
:1009D0000000000000000000000001960C94F600EA
:1009E000000000000000000000000000CEE6CF93F1
:1009F000C4E0CF930C946A01000081300C94F6009F
:100A000000000000000000000000000091050C94B0
:100A1000F60000000000000000000000000057EA9F
:100A20000C94F60000000000000000000000000030
:100A300097FB072E16F4009407D077FD09D00E948B
:100A40002C0507FC05D03EF4909581959F4F0895A5
:100A5000709561957F4F0895AA1BBB1B51E107C09C
:100A6000AA1FBB1FA617B70710F0A61BB70B881F3E
:100A7000991F5A95A9F780959095BC01CD010895CD
:040A8000F894FFCF18
:0400000300000400F5
:00000001FF
