:100400000C9434020C943E020C943E020C943E0276
:100410000C943E020C943E020C943E020C943E025C
:100420000C943E020C943E020C943E020C943E024C
:100430000C943E020C943E020C943E020C943E023C
:100440000C943E020C943E020C943E020C943E022C
:100450000C943E020C943E020C943E020C943E021C
:100460000C943E020C943E0211241FBECFEFD8E044
:10047000DEBFCDBF0E9440020C9441050C940002E7
:10048000259A0C94F6000000000000000000000017
:10049000000000000C94F6000000000000000000C6
:1004A00000000000B9010C94F600000000000000FC
:1004B0000000000000004FEF0C94F6000000000068
:1004C000000000000000000091050C94F600000000
:1004D0000000000000000000000011F40C94F60081
:1004E000CEEFCF93C4E0CF930C946A0161E60C94F5
:1004F000F6000000000000000000000000004FEFC8
:100500000C94F60000000000000000000000000055
:1005100054E30C94F600000000000000000000000E
:1005200000000E9419050C94F60000000000000075
:100530000000000057EA0C94F600000000000000E4
:1005400000000000000011F40C94F600CBE5CF93FE
:10055000C2E0CF930C946A014FEF0C94F6000000B8
:100560000000000000000000000041500C94F60064
:1005700000000000000000000000000053ED0C949B
:10058000F6000000000000000000000000006CE029
:100590000C94F600000000000000000000000000C5
:1005A00080E00C94F6000000000000000000000055
:1005B000000011F40C94F600CDE1CF93C4E0CF938A
:1005C0000C946A014FEF0C94F6000000000000004C
:1005D00000000000000054E30C94F600000000004E
:1005E000000000000000000050400C94F6000000E5
:1005F0000000000000000000000060E30C94F60022
:1006000000000000000000000000000041500C94B9
:10061000F60000000000000000000000000090E074
:100620000C94F60000000000000000000000000034
:1006300000000C94F6000000000000000000000024
:10064000000041500C94F600000000000000000083
:100650000000000061E60C94F600000000000000BD
:1006600000000000000060400C94F6000000000054
:10067000000000000000000041500C94F600000053
:100680000000000000000000000050400C94F60044
:1006900000000000000000000000000023E00C94B7
:1006A000F600000000000000000000000000000054
:1006B0000C94F600000000000000000000000000A4
:1006C00050400C94F6000000000000000000000004
:1006D000000060E30C94F600000000000000000041
:1006E0000000000053ED0C94F60000000000000034
:1006F0000000000000006CE00C94F6000000000018
:10070000000000000000000060400C94F6000000B3
:100710000000000000000000000030E00C94F60033
:1007200000000000000000000000000000000C9429
:10073000F600000000000000000000000000604023
:100740000C94F60000000000000000000000000013
:1007500041500C94F6000000000000000000000072
:10076000000050400C94F600000000000000000063
:100770000000000041500C94F60000000000000052
:1007800000000000000011F40C94F600C5EBCF93BC
:10079000C2E0CF930C946A0150400C94F600000024
:1007A0000000000000000000000000000C94F600B3
:1007B00000000000000000000000000011F40C9494
:1007C000F600C1E2CF93C3E0CF930C946A0150408E
:1007D0000C94F60000000000000000000000000083
:1007E00060400C94F60000000000000000000000D3
:1007F000000000000C94F600000000000000000063
:10080000000000000C9404040C94F60000000000AA
:1008100000000000000060400C94F60000000000A2
:100820000000000000000000C6E0CF93C3E0CF93BB
:100830000C946A010000000000002D9A0C94F60050
:1008400000000000000000000000000060400C9468
:10085000F60000000000000000000000000011F49D
:100860000C94F600CAEBCF93C3E0CF930C946A01CB
:100870002D980C94F600000000000000000000001D
:100880000000C2E0CF93C4E0CF930C946A01000053
:100890000000000011F40C94F600CCE3CF93C3E009
:1008A000CF930C946A01C2E0CF93C4E0CF930C9431
:1008B0006A0100000000000082300C94F600000085
:1008C0000000000000000000000000000C94F60092
:1008D0000000000000000000000000000C94700404
:1008E0000C94F600000000000000000000008230C0
:1008F0000C94F60000000000000000000000000062
:100900004FEF0C94F6000000000000000000000013
:10091000000091050C94F6000000000000000000AB
:100920000000000081300C94F60000000000000080
:1009300000000000000091050C94F600000000008B
:10094000000000000000000000000C94F600000011
:100950000000000000000000000000000C94F60001
:1009600000000000000000000000000011F40C94E2
:10097000F600C8EACF93C3E0CF930C946A01CEE6A9
:10098000CF93C4E0CF930C946A01000000000000F4
:1009900011F40C94F600C0E8CF93C4E0CF930C940C
:1009A0006A014FEF0C94F600000000000000000008
:1009B0000000000011F40C94F600C2E9CF93C4E0EB
:1009C000CF930C946A0100000C94F6000000000024
:1009D000000000000000000001960C94F6000000EA
:1009E00000000000000000000000CEE6CF93C4E04D
:1009F000CF930C946A0100000000000081300C9439
:100A0000F60000000000000000000000000091055A
:100A10000C94F60000000000000000000000000040
:100A200057EA0C94F60000000000000000000000EF
:100A3000000097FB072E16F4009407D077FD09D02D
:100A40000E942D0507FC05D03EF4909581959F4F9F
:100A50000895709561957F4F0895AA1BBB1B51E1C6
:100A600007C0AA1FBB1FA617B70710F0A61BB70B1E
:100A7000881F991F5A95A9F780959095BC01CD01C3
:060A80000895F894FFCF79
:0400000300000400F5
:100000000C9434000C9446000C9446000C9446006A
:100010000C9446000C9446000C9446000C94460048
:100020000C9446000C9446000C9446000C94460038
:100030000C9446000C9446000C9446000C94460028
:100040000C9446000C9446000C9446000C94460018
:100050000C9446000C9446000C9446000C94460008
:100060000C9446000C94460011241FBECFEFD8E03C
:10007000DEBFCDBF11E0A0E0B1E001C01D92A6300F
:10008000B107E1F70E94BD000C94EC010C94000054
:10009000EF92FF920F931F93CF93DF9369E070E08D
:1000A0000E94D801FB01C5E0D0E059E0E52EF12C1B
:1000B0009F01220F331F280F391FC901B7010E946A
:1000C000D8018C01C9018E1B9F0BB7010E94D8017A
:1000D0002197209711F0F801EBCF49E0409F900164
:1000E000419F300D1124280F391F87E0482F429F70
:1000F000C001439F900D1124DF91CF911F910F916B
:10010000FF90EF900895EF92FF920F931F93CF937C
:10011000DF9369E070E00E94D801FB01C7E0D0E006
:1001200079E0E72EF12C9F01220F331F280F391F92
:10013000C901B7010E94D8018C01C9018E1B9F0B18
:10014000B7010E94D8012197209711F0F801EBCF59
:1001500049E0409F9001419F300D1124280F391F25
:10016000C90167E070E00E94D801CB01DF91CF9117
:100170001F910F91FF90EF900895CF92DF92EF9231
:10018000FF920F931F93CF93DF9310920101109270
:10019000000180E492E0909303018093020140917A
:1001A000040150910501809100019091010120917D
:1001B000020130910301840F951F820F931F9093CA
:1001C00005018093040180910001909101018093C9
:1001D00000028091000190910101909301028091B1
:1001E000040190910501E82FF92F099480E492E031
:1001F000909303018093020180910002909101028B
:100200009093010180930001809100019091010180
:1002100001969093010180930001809100019091DB
:10022000010180930002809100019091010190935F
:100230000102809100019091010129E030E0B901B3
:100240000E94D801FB018091000190910101B90148
:100250000E94D801C5E0D0E009E0E02EF12C9F011A
:10026000220F331F280F391FC901B7010E94D8017F
:100270008C01C9018E1B9F0BB7010E94D8012197E9
:10028000209711F0F801EBCF49E0409F9001419F8A
:10029000300D1124280F391F429FC001439F900D3C
:1002A0001124909305018093040120910401309161
:1002B00005018091020190910301820F931F909399
:1002C0000501809304018091040190910501E82FBC
:1002D000F92F0994FF91EF918E2F9F2F9093050195
:1002E00080930401E0900401F09005018054925045
:1002F0009093050180930401809104019091050180
:1003000029E030E0B9010E94D801709305016093A3
:1003100004018091040190910501B9010E94D80166
:10032000FB018091040190910501B9010E94D8015F
:10033000C7E0D0E0B9E0CB2ED12C9F01220F331FB4
:10034000280F391FC901B6010E94D8018C01C901CB
:100350008E1B9F0BB6010E94D8012197209711F0A8
:10036000F801EBCF49E0409F9001419F300D1124EF
:10037000280F391F30930101209300018091000163
:100380009091010180930002809100019091010100
:1003900090930102EE2DFF2D099480E090E0DF9113
:1003A000CF911F910F91FF90EF90DF90CF90089524
:1003B000AA1BBB1B51E107C0AA1FBB1FA617B7078B
:1003C00010F0A61BB70B881F991F5A95A9F78095A7
:0C03D0009095BC01CD010895F894FFCF7A
:00000001FF


