:100000000C9434000C9446000C9446000C9446006A
:100010000C9446000C9446000C9446000C94460048
:100020000C9446000C9446000C9446000C94460038
:100030000C9446000C9446000C9446000C94460028
:100040000C9446000C9446000C9446000C94460018
:100050000C9446000C9446000C9446000C94460008
:100060000C9446000C94460011241FBECFEFD8E03C
:10007000DEBFCDBF11E0A0E0B1E001C01D92A23013
:10008000B107E1F70E944A000C9479000C9400003B
:10009000019608958FEF90E0809300028FEF90E03B
:1000A00090930102809100029093010180930001DE
:1000B000809100019091010101969093010180933C
:1000C00000018091000190910101809300028091D4
:1000D00000019091010190930102809100019091A3
:1000E00001018F939F93FF91EF91099480E090E03D
:0600F0000895F894FFCF13
:00000001FF
