:100100000C94B4000C94BE000C94BE000C94BE0081
:100110000C94BE000C94BE000C94BE000C94BE0067
:100120000C94BE000C94BE000C94BE000C94BE0057
:100130000C94BE000C94BE000C94BE000C94BE0047
:100140000C94BE000C94BE000C94BE000C94BE0037
:100150000C94BE000C94BE000C94BE000C94BE0027
:100160000C94BE000C94BE0011241FBECFEFD8E04B
:10017000DEBFCDBF0E94C0000C940D020C94800025
:10018000259AE9E5F0E0099480E0E9E5F0E00994DA
:1001900090E0E9E5F0E0099423E0E9E5F0E0099476
:1001A00030E0E9E5F0E009942D9AE9E5F0E0099402
:1001B0008230E9E5F0E009949105E9E5F0E0099481
:1001C00019F5E9E5F0E009944FEFE9E5F0E009946D
:1001D00054E3E9E5F0E009946CE0E9E5F0E0099426
:1001E0004150E9E5F0E009945040E9E5F0E0099478
:1001F0006040E9E5F0E0099499F7E9E5F0E0099459
:100200004BC0E9E5F0E009948130E9E5F0E00994BC
:100210009105E9E5F0E0099419F5E9E5F0E00994C4
:100220004FEFE9E5F0E0099453EDE9E5F0E00994DA
:1002300060E3E9E5F0E009944150E9E5F0E0099474
:100240005040E9E5F0E009946040E9E5F0E0099408
:1002500099F7E9E5F0E009941FC0E9E5F0E00994B9
:100260004FEFE9E5F0E0099457EAE9E5F0E0099499
:1002700061E6E9E5F0E009944150E9E5F0E0099430
:100280005040E9E5F0E009946040E9E5F0E00994C8
:1002900099F7E9E5F0E0099400C0E9E5F0E0099498
:1002A0000000E9E5F0E009942D98E9E5F0E0099413
:1002B0008230E9E5F0E009949105E9E5F0E0099480
:1002C00019F5E9E5F0E009944FEFE9E5F0E009946C
:1002D00054E3E9E5F0E009946CE0E9E5F0E0099425
:1002E0004150E9E5F0E009945040E9E5F0E0099477
:1002F0006040E9E5F0E0099499F7E9E5F0E0099458
:100300004BC0E9E5F0E009948130E9E5F0E00994BB
:100310009105E9E5F0E0099419F5E9E5F0E00994C3
:100320004FEFE9E5F0E0099453EDE9E5F0E00994D9
:1003300060E3E9E5F0E009944150E9E5F0E0099473
:100340005040E9E5F0E009946040E9E5F0E0099407
:1003500099F7E9E5F0E009941FC0E9E5F0E00994B8
:100360004FEFE9E5F0E0099457EAE9E5F0E0099498
:1003700061E6E9E5F0E009944150E9E5F0E009942F
:100380005040E9E5F0E009946040E9E5F0E00994C7
:1003900099F7E9E5F0E0099400C0E9E5F0E0099497
:1003A0000000E9E5F0E009940196E9E5F0E0099440
:1003B000B901E9E5F0E009940E94E501E9E5F0E022
:1003C0000994F2CEE9E5F0E0099497FB072E16F4C4
:1003D000009407D077FD09D00E94F90107FC05D0F1
:1003E0003EF4909581959F4F0895709561957F4F4C
:1003F0000895AA1BBB1B51E107C0AA1FBB1FA6176C
:10040000B70710F0A61BB70B881F991F5A95A9F7BD
:0E04100080959095BC01CD010895F894FFCF22
:0400000300000100F8
:00000001FF
